{
  "contractName": "MerkleAirdrop",
  "abi": [
    {
      "constant": true,
      "inputs": [],
      "name": "merkleRoot",
      "outputs": [
        {
          "name": "",
          "type": "bytes32"
        }
      ],
      "payable": false,
      "stateMutability": "view",
      "type": "function"
    },
    {
      "inputs": [
        {
          "name": "_tokenContract",
          "type": "address"
        }
      ],
      "payable": false,
      "stateMutability": "nonpayable",
      "type": "constructor"
    },
    {
      "anonymous": false,
      "inputs": [
        {
          "indexed": false,
          "name": "addr",
          "type": "address"
        },
        {
          "indexed": false,
          "name": "num",
          "type": "uint256"
        }
      ],
      "name": "AirdropTransfer",
      "type": "event"
    },
    {
      "constant": false,
      "inputs": [
        {
          "name": "_merkleRoot",
          "type": "bytes32"
        }
      ],
      "name": "setRoot",
      "outputs": [],
      "payable": false,
      "stateMutability": "nonpayable",
      "type": "function"
    },
    {
      "constant": true,
      "inputs": [],
      "name": "contractTokenBalance",
      "outputs": [
        {
          "name": "",
          "type": "uint256"
        }
      ],
      "payable": false,
      "stateMutability": "view",
      "type": "function"
    },
    {
      "constant": false,
      "inputs": [],
      "name": "claim_rest_of_tokens_and_selfdestruct",
      "outputs": [
        {
          "name": "",
          "type": "bool"
        }
      ],
      "payable": false,
      "stateMutability": "nonpayable",
      "type": "function"
    },
    {
      "constant": false,
      "inputs": [
        {
          "name": "_proof",
          "type": "bytes32[]"
        },
        {
          "name": "_who",
          "type": "address"
        },
        {
          "name": "_amount",
          "type": "uint256"
        }
      ],
      "name": "getTokensByMerkleProof",
      "outputs": [
        {
          "name": "",
          "type": "bool"
        }
      ],
      "payable": false,
      "stateMutability": "nonpayable",
      "type": "function"
    },
    {
      "constant": true,
      "inputs": [
        {
          "name": "proof",
          "type": "bytes32[]"
        },
        {
          "name": "hash",
          "type": "bytes32"
        }
      ],
      "name": "checkProof",
      "outputs": [
        {
          "name": "",
          "type": "bool"
        }
      ],
      "payable": false,
      "stateMutability": "view",
      "type": "function"
    }
  ],
  "bytecode": "0x608060405234801561001057600080fd5b50604051602080610d64833981016040525160008054600160a060020a0319908116331790915560028054600160a060020a0390931692909116919091179055610d058061005f6000396000f3006080604052600436106100775763ffffffff7c01000000000000000000000000000000000000000000000000000000006000350416632eb4a7ab811461007c5780633215b483146100a35780633f28f24c1461011d57806342fd6acc146101325780639e9aed6214610189578063dab5f3401461019e575b600080fd5b34801561008857600080fd5b506100916101b8565b60408051918252519081900360200190f35b3480156100af57600080fd5b50604080516020600480358082013583810280860185019096528085526101099536959394602494938501929182918501908490808284375094975050508335600160a060020a03169450505060209091013590506101be565b604080519115158252519081900360200190f35b34801561012957600080fd5b50610109610322565b34801561013e57600080fd5b50604080516020600480358082013583810280860185019096528085526101099536959394602494938501929182918501908490808284375094975050933594506105219350505050565b34801561019557600080fd5b50610091610670565b3480156101aa57600080fd5b506101b6600435610706565b005b60015481565b600160a060020a03821660009081526003602052604081205460ff161515600114156101e957600080fd5b600082116101f657600080fd5b610209846102048585610722565b610521565b15156102175750600061031b565b600160a060020a038084166000818152600360209081526040808320805460ff1916600117905560025481517f40c10f1900000000000000000000000000000000000000000000000000000000815260048101959095526024850188905290519416936340c10f1993604480820194918390030190829087803b15801561029d57600080fd5b505af11580156102b1573d6000803e3d6000fd5b505050506040513d60208110156102c757600080fd5b50511515600114156100775760408051600160a060020a03851681526020810184905281517f100b8658c21fe4c10650c23cfd2c97c97ac86370102510563d824216683256a5929181900390910190a15060015b9392505050565b60008054600160a060020a0316331461033a57600080fd5b600254604080517f70a082310000000000000000000000000000000000000000000000000000000081523060048201529051600092600160a060020a0316916370a0823191602480830192602092919082900301818787803b15801561039f57600080fd5b505af11580156103b3573d6000803e3d6000fd5b505050506040513d60208110156103c957600080fd5b505110156103d657600080fd5b60025460008054604080517f70a082310000000000000000000000000000000000000000000000000000000081523060048201529051600160a060020a039485169463a9059cbb9493169285926370a082319260248083019360209383900390910190829087803b15801561044a57600080fd5b505af115801561045e573d6000803e3d6000fd5b505050506040513d602081101561047457600080fd5b5051604080517c010000000000000000000000000000000000000000000000000000000063ffffffff8616028152600160a060020a03909316600484015260248301919091525160448083019260209291908290030181600087803b1580156104dc57600080fd5b505af11580156104f0573d6000803e3d6000fd5b505050506040513d602081101561050657600080fd5b5051151561051357600080fd5b600054600160a060020a0316ff5b60008082815b855160001901811161066357858181518110151561054157fe5b602090810290910101519250828210156105da57604080516020808201859052818301869052825180830384018152606090920192839052815191929182918401908083835b602083106105a65780518252601f199092019160209182019101610587565b6001836020036101000a0380198251168184511680821785525050505050509050019150506040518091039020915061065b565b604080516020808201869052818301859052825180830384018152606090920192839052815191929182918401908083835b6020831061062b5780518252601f19909201916020918201910161060c565b6001836020036101000a038019825116818451168082178552505050505050905001915050604051809103902091505b600101610527565b5060015414949350505050565b600254604080517f70a082310000000000000000000000000000000000000000000000000000000081523060048201529051600092600160a060020a0316916370a0823191602480830192602092919082900301818787803b1580156106d557600080fd5b505af11580156106e9573d6000803e3d6000fd5b505050506040513d60208110156106ff57600080fd5b5051905090565b600054600160a060020a0316331461071d57600080fd5b600155565b604080518082018252600281527f30780000000000000000000000000000000000000000000000000000000000006020808301919091528251808401909352600183527f20000000000000000000000000000000000000000000000000000000000000009083015260009181606080808080888061079f8d610a4f565b96508895506107ad8c610b69565b94508451865188518a510101016040519080825280601f01601f1916602001820160405280156107e7578160200160208202803883390190505b50935083925060009150600090505b875181101561085457878181518110151561080d57fe5b90602001015160f860020a900460f860020a02838380600101945081518110151561083457fe5b906020010190600160f860020a031916908160001a9053506001016107f6565b5060005b86518110156108b657868181518110151561086f57fe5b90602001015160f860020a900460f860020a02838380600101945081518110151561089657fe5b906020010190600160f860020a031916908160001a905350600101610858565b5060005b85518110156109185785818151811015156108d157fe5b90602001015160f860020a900460f860020a0283838060010194508151811015156108f857fe5b906020010190600160f860020a031916908160001a9053506001016108ba565b5060005b845181101561097a57848181518110151561093357fe5b90602001015160f860020a900460f860020a02838380600101945081518110151561095a57fe5b906020010190600160f860020a031916908160001a90535060010161091c565b836040516020018082805190602001908083835b602083106109ad5780518252601f19909201916020918201910161098e565b6001836020036101000a0380198251168184511680821785525050505050509050019150506040516020818303038152906040526040518082805190602001908083835b60208310610a105780518252601f1990920191602091820191016109f1565b6001836020036101000a03801982511681845116808217855250505050505090500191505060405180910390209a505050505050505050505092915050565b60408051602880825260608083019093528291600091829182918291906020820161050080388339019050509450600093505b6014841015610b5e578360130360080260020a87600160a060020a0316811515610aa857fe5b0460f860020a02925060108360f860020a900460ff16811515610ac757fe5b0460f860020a0291508160f860020a90046010028360f860020a90040360f860020a029050610af582610c5c565b8585600202815181101515610b0657fe5b906020010190600160f860020a031916908160001a905350610b2781610c5c565b8585600202600101815181101515610b3b57fe5b906020010190600160f860020a031916908160001a905350600190930192610a82565b509295945050505050565b60606000808281851515610bb25760408051808201909152600181527f300000000000000000000000000000000000000000000000000000000000000060208201529450610c53565b8593505b8315610bcd57600190920191600a84049350610bb6565b826040519080825280601f01601f191660200182016040528015610bfb578160200160208202803883390190505b5091505060001982015b8515610c4f57815160001982019160f860020a6030600a8a060102918491908110610c2c57fe5b906020010190600160f860020a031916908160001a905350600a86049550610c05565b8194505b50505050919050565b60007f0a000000000000000000000000000000000000000000000000000000000000007fff0000000000000000000000000000000000000000000000000000000000000083161015610cc0578160f860020a900460300160f860020a029050610cd4565b8160f860020a900460570160f860020a0290505b9190505600a165627a7a72305820f9b1ebeac7670e0d36f7b95b623f7cc70cb1880a13086112708985f800d15a380029",
  "source": "/**\n * Copyright (C) 2018  Smartz, LLC\n *\n * Licensed under the Apache License, Version 2.0 (the \"License\").\n * You may not use this file except in compliance with the License.\n *\n * Unless required by applicable law or agreed to in writing, software\n * distributed under the License is distributed on an \"AS IS\" BASIS,\n * WITHOUT WARRANTIES OR CONDITIONS OF ANY KIND (express or implied).\n */\n\npragma solidity ^0.4.23;\n\n/**\n * @title MerkleAirdrop\n * Transfers fixed amount of tokens to anybody, presented merkle proof for merkle root, placed in contract\n *\n * @author Boogerwooger <sergey.prilutskiy@smartz.io>\n */\nimport 'openzeppelin-solidity/contracts/token/ERC20/MintableToken.sol';\n\ncontract MerkleAirdrop {\n\n    address owner;\n    bytes32 public merkleRoot;\n\t// string public ipfsHash;\n\n    // address of contract, having \"transfer\" function\n    // airdrop contract must have ENOUGH TOKENS in its balance to perform transfer\n    MintableToken tokenContract;\n\n    // fix already minted addresses\n    mapping (address => bool) spent;\n    event AirdropTransfer(address addr, uint256 num);\n\n    constructor(address _tokenContract) public {\n        owner = msg.sender;\n        tokenContract = MintableToken(_tokenContract);\n    }\n\n\n    function setRoot(bytes32 _merkleRoot) public {\n        require(msg.sender == owner);\n        merkleRoot = _merkleRoot;\n    }\n\n\tfunction contractTokenBalance() public view returns(uint) {\n\t\treturn tokenContract.balanceOf(address(this));\n\t}\n\n    function claim_rest_of_tokens_and_selfdestruct() public returns(bool) {\n        // only owner\n        require(msg.sender == owner);\n        require(tokenContract.balanceOf(address(this)) >= 0);\n        require(tokenContract.transfer(owner, tokenContract.balanceOf(address(this))));\n        selfdestruct(owner);\n        return true;\n    }\n\n    function addressToAsciiString(address x) internal pure returns (string) {\n        bytes memory s = new bytes(40);\n        for (uint i = 0; i < 20; i++) {\n            byte b = byte(uint8(uint(x) / (2**(8*(19 - i)))));\n            byte hi = byte(uint8(b) / 16);\n            byte lo = byte(uint8(b) - 16 * uint8(hi));\n            s[2*i] = char(hi);\n            s[2*i+1] = char(lo);\n        }\n        return string(s);\n    }\n\n    function char(byte b) internal pure returns (byte c) {\n        if (b < 10) return byte(uint8(b) + 0x30);\n        else return byte(uint8(b) + 0x57);\n    }\n\n\n    function uintToStr(uint i) internal pure returns (string){\n        if (i == 0) return \"0\";\n        uint j = i;\n        uint length;\n        while (j != 0){\n            length++;\n            j /= 10;\n        }\n        bytes memory bstr = new bytes(length);\n        uint k = length - 1;\n        while (i != 0){\n            bstr[k--] = byte(48 + i % 10);\n            i /= 10;\n        }\n        return string(bstr);\n    }\n\n    function leaf_from_address_and_num_tokens(address _a, uint256 _n) internal pure returns(bytes32 ) {\n        string memory prefix = \"0x\";\n        string memory space = \" \";\n\n        // file with addresses and tokens have this format: \"0x123...DEF 999\", where 999 - num tokens\n        // function simply calculates hash of such a string, given the target adddres and num_tokens\n\n        bytes memory _ba = bytes(prefix);\n        bytes memory _bb = bytes(addressToAsciiString(_a));\n        bytes memory _bc = bytes(space);\n        bytes memory _bd = bytes(uintToStr(_n));\n        string memory abcde = new string(_ba.length + _bb.length + _bc.length + _bd.length);\n        bytes memory babcde = bytes(abcde);\n        uint k = 0;\n        for (uint i = 0; i < _ba.length; i++) babcde[k++] = _ba[i];\n        for (i = 0; i < _bb.length; i++) babcde[k++] = _bb[i];\n        for (i = 0; i < _bc.length; i++) babcde[k++] = _bc[i];\n        for (i = 0; i < _bd.length; i++) babcde[k++] = _bd[i];\n\n        return bytes32(keccak256(abi.encodePacked(abcde)));\n    }\n\n\n    function getTokensByMerkleProof(bytes32[] _proof, address _who, uint256 _amount) public returns(bool) {\n        require(spent[_who] != true);\n        require(_amount > 0);\n        // require(msg.sender = _who); // makes not possible to mint tokens for somebody, uncomment for more strict version\n\n        if (!checkProof(_proof, leaf_from_address_and_num_tokens(_who, _amount))) {\n            return false;\n        }\n        \n        spent[_who] = true;\n\n        if (tokenContract.mint(_who, _amount) == true) {\n            emit AirdropTransfer(_who, _amount);\n            return true;\n        }\n\t\t// throw if transfer fails, no need to spend gaz\n        require(false);\n    }\n\n    function checkProof(bytes32[] proof, bytes32 hash) view public returns (bool) {\n        bytes32 el;\n        bytes32 h = hash;\n\n        for (uint i = 0; i <= proof.length - 1; i += 1) {\n            el = proof[i];\n\n            if (h < el) {\n                h = keccak256(abi.encodePacked(h, el));\n            } else {\n                h = keccak256(abi.encodePacked(el, h));\n            }\n        }\n\n        return h == merkleRoot;\n    }\n}\n",
  "sourcePath": "/Users/shivamsinha/Desktop/Programming/workspace/ethereum/truffleProjects/constructor-eth-merkle-airdrop/contracts/MerkleAirdrop.sol",
  "compiler": {
    "name": "solc",
    "version": "0.4.24+commit.e67f0147.Emscripten.clang"
  },
  "schemaVersion": "2.0.1",
  "updatedAt": "2018-10-03T13:46:33.275Z"
}