{
  "contractName": "MerkleAirdrop",
  "abi": [
    {
      "constant": true,
      "inputs": [],
      "name": "merkleRoot",
      "outputs": [
        {
          "name": "",
          "type": "bytes32"
        }
      ],
      "payable": false,
      "stateMutability": "view",
      "type": "function"
    },
    {
      "inputs": [
        {
          "name": "_tokenContract",
          "type": "address"
        }
      ],
      "payable": false,
      "stateMutability": "nonpayable",
      "type": "constructor"
    },
    {
      "anonymous": false,
      "inputs": [
        {
          "indexed": false,
          "name": "addr",
          "type": "address"
        },
        {
          "indexed": false,
          "name": "num",
          "type": "uint256"
        }
      ],
      "name": "AirdropTransfer",
      "type": "event"
    },
    {
      "anonymous": false,
      "inputs": [
        {
          "indexed": false,
          "name": "func",
          "type": "string"
        },
        {
          "indexed": false,
          "name": "message",
          "type": "string"
        }
      ],
      "name": "EventLog",
      "type": "event"
    },
    {
      "constant": false,
      "inputs": [
        {
          "name": "_merkleRoot",
          "type": "bytes32"
        }
      ],
      "name": "setRoot",
      "outputs": [],
      "payable": false,
      "stateMutability": "nonpayable",
      "type": "function"
    },
    {
      "constant": true,
      "inputs": [],
      "name": "contractTokenBalance",
      "outputs": [
        {
          "name": "",
          "type": "uint256"
        }
      ],
      "payable": false,
      "stateMutability": "view",
      "type": "function"
    },
    {
      "constant": false,
      "inputs": [],
      "name": "claim_rest_of_tokens_and_selfdestruct",
      "outputs": [
        {
          "name": "",
          "type": "bool"
        }
      ],
      "payable": false,
      "stateMutability": "nonpayable",
      "type": "function"
    },
    {
      "constant": false,
      "inputs": [
        {
          "name": "_proof",
          "type": "bytes32[]"
        },
        {
          "name": "_who",
          "type": "address"
        },
        {
          "name": "_amount",
          "type": "uint256"
        },
        {
          "name": "_nounce",
          "type": "uint256"
        }
      ],
      "name": "getTokensByMerkleProof",
      "outputs": [
        {
          "name": "",
          "type": "bool"
        }
      ],
      "payable": false,
      "stateMutability": "nonpayable",
      "type": "function"
    },
    {
      "constant": true,
      "inputs": [
        {
          "name": "proof",
          "type": "bytes32[]"
        },
        {
          "name": "hash",
          "type": "bytes32"
        }
      ],
      "name": "checkProof",
      "outputs": [
        {
          "name": "",
          "type": "bool"
        }
      ],
      "payable": false,
      "stateMutability": "view",
      "type": "function"
    }
  ],
  "bytecode": "0x608060405234801561001057600080fd5b50604051602080611010833981016040525160008054600160a060020a0319908116331790915560028054600160a060020a0390931692909116919091179055610fb18061005f6000396000f3006080604052600436106100775763ffffffff7c01000000000000000000000000000000000000000000000000000000006000350416632eb4a7ab811461007c5780633f28f24c146100a357806342fd6acc146100cc57806376cb4816146101235780639e9aed621461018d578063dab5f340146101a2575b600080fd5b34801561008857600080fd5b506100916101bc565b60408051918252519081900360200190f35b3480156100af57600080fd5b506100b86101c2565b604080519115158252519081900360200190f35b3480156100d857600080fd5b50604080516020600480358082013583810280860185019096528085526100b89536959394602494938501929182918501908490808284375094975050933594506103c19350505050565b34801561012f57600080fd5b50604080516020600480358082013583810280860185019096528085526100b89536959394602494938501929182918501908490808284375094975050508335600160a060020a031694505050602082013591604001359050610510565b34801561019957600080fd5b50610091610928565b3480156101ae57600080fd5b506101ba6004356109be565b005b60015481565b60008054600160a060020a031633146101da57600080fd5b600254604080517f70a082310000000000000000000000000000000000000000000000000000000081523060048201529051600092600160a060020a0316916370a0823191602480830192602092919082900301818787803b15801561023f57600080fd5b505af1158015610253573d6000803e3d6000fd5b505050506040513d602081101561026957600080fd5b5051101561027657600080fd5b60025460008054604080517f70a082310000000000000000000000000000000000000000000000000000000081523060048201529051600160a060020a039485169463a9059cbb9493169285926370a082319260248083019360209383900390910190829087803b1580156102ea57600080fd5b505af11580156102fe573d6000803e3d6000fd5b505050506040513d602081101561031457600080fd5b5051604080517c010000000000000000000000000000000000000000000000000000000063ffffffff8616028152600160a060020a03909316600484015260248301919091525160448083019260209291908290030181600087803b15801561037c57600080fd5b505af1158015610390573d6000803e3d6000fd5b505050506040513d60208110156103a657600080fd5b505115156103b357600080fd5b600054600160a060020a0316ff5b60008082815b85516000190181116105035785818151811015156103e157fe5b6020908102909101015192508282101561047a57604080516020808201859052818301869052825180830384018152606090920192839052815191929182918401908083835b602083106104465780518252601f199092019160209182019101610427565b6001836020036101000a038019825116818451168082178552505050505050905001915050604051809103902091506104fb565b604080516020808201869052818301859052825180830384018152606090920192839052815191929182918401908083835b602083106104cb5780518252601f1990920191602091820191016104ac565b6001836020036101000a038019825116818451168082178552505050505050905001915050604051809103902091505b6001016103c7565b5060015414949350505050565b60008061051d85846109da565b60008181526003602052604090205490915060ff161515600114156106f1577f639cd09cc64bbcaf6d0f7a582ebc54ad362fdf02da42dcf6684a1a91908f970c61056686610a87565b604051808060200180602001838103835260148152602001807f4b657920436c61696d656420416464726573733a000000000000000000000000815250602001838103825284818151815260200191508051906020019080838360005b838110156105db5781810151838201526020016105c3565b50505050905090810190601f1680156106085780820380516001836020036101000a031916815260200191505b50935050505060405180910390a17f639cd09cc64bbcaf6d0f7a582ebc54ad362fdf02da42dcf6684a1a91908f970c61064084610ba1565b604051808060200180602001838103835260138152602001807f4b657920436c61696d6564204e6f756e63653a00000000000000000000000000815250602001838103825284818151815260200191508051906020019080838360005b838110156106b557818101518382015260200161069d565b50505050905090810190601f1680156106e25780820380516001836020036101000a031916815260200191505b50935050505060405180910390a15b60008181526003602052604090205460ff161561070d57600080fd5b6000841161071a57600080fd5b61072e86610729878787610c94565b6103c1565b1515610817577f639cd09cc64bbcaf6d0f7a582ebc54ad362fdf02da42dcf6684a1a91908f970c61075e84610ba1565b604051808060200180602001838103835260108152602001807f50726f6f66204e6f742056616c69643a00000000000000000000000000000000815250602001838103825284818151815260200191508051906020019080838360005b838110156107d35781810151838201526020016107bb565b50505050905090810190601f1680156108005780820380516001836020036101000a031916815260200191505b50935050505060405180910390a16000915061091f565b6000818152600360209081526040808320805460ff1916600117905560025481517f40c10f19000000000000000000000000000000000000000000000000000000008152600160a060020a038a81166004830152602482018a9052925192909116936340c10f199360448084019491939192918390030190829087803b1580156108a057600080fd5b505af11580156108b4573d6000803e3d6000fd5b505050506040513d60208110156108ca57600080fd5b50511515600114156100775760408051600160a060020a03871681526020810186905281517f100b8658c21fe4c10650c23cfd2c97c97ac86370102510563d824216683256a5929181900390910190a1600191505b50949350505050565b600254604080517f70a082310000000000000000000000000000000000000000000000000000000081523060048201529051600092600160a060020a0316916370a0823191602480830192602092919082900301818787803b15801561098d57600080fd5b505af11580156109a1573d6000803e3d6000fd5b505050506040513d60208110156109b757600080fd5b5051905090565b600054600160a060020a031633146109d557600080fd5b600155565b600082826040516020018083600160a060020a0316600160a060020a03166c01000000000000000000000000028152601401828152602001925050506040516020818303038152906040526040518082805190602001908083835b60208310610a545780518252601f199092019160209182019101610a35565b5181516020939093036101000a600019018019909116921691909117905260405192018290039091209695505050505050565b60408051602880825260608083019093528291600091829182918291906020820161050080388339019050509450600093505b6014841015610b96578360130360080260020a87600160a060020a0316811515610ae057fe5b0460f860020a02925060108360f860020a900460ff16811515610aff57fe5b0460f860020a0291508160f860020a90046010028360f860020a90040360f860020a029050610b2d82610e9d565b8585600202815181101515610b3e57fe5b906020010190600160f860020a031916908160001a905350610b5f81610e9d565b8585600202600101815181101515610b7357fe5b906020010190600160f860020a031916908160001a905350600190930192610aba565b509295945050505050565b60606000808281851515610bea5760408051808201909152600181527f300000000000000000000000000000000000000000000000000000000000000060208201529450610c8b565b8593505b8315610c0557600190920191600a84049350610bee565b826040519080825280601f01601f191660200182016040528015610c33578160200160208202803883390190505b5091505060001982015b8515610c8757815160001982019160f860020a6030600a8a060102918491908110610c6457fe5b906020010190600160f860020a031916908160001a905350600a86049550610c3d565b8194505b50505050919050565b604080518082018252600281527f30780000000000000000000000000000000000000000000000000000000000006020808301919091528251808401909352600183527f2000000000000000000000000000000000000000000000000000000000000000908301526000918160608080808080808a610d128f610a87565b9750899650610d208e610ba1565b9550899450610d2e8d610ba1565b935083518551875189518b518d5101010101016040519080825280601f01601f191660200182016040528015610d6e578160200160208202803883390190505b50925082915060009050610d83898383610f1a565b9050610d90888383610f1a565b9050610d9d878383610f1a565b9050610daa868383610f1a565b9050610db7858383610f1a565b9050610dc4848383610f1a565b9050826040516020018082805190602001908083835b60208310610df95780518252601f199092019160209182019101610dda565b6001836020036101000a0380198251168184511680821785525050505050509050019150506040516020818303038152906040526040518082805190602001908083835b60208310610e5c5780518252601f199092019160209182019101610e3d565b6001836020036101000a03801982511681845116808217855250505050505090500191505060405180910390209b5050505050505050505050509392505050565b60007f0a000000000000000000000000000000000000000000000000000000000000007fff0000000000000000000000000000000000000000000000000000000000000083161015610f01578160f860020a900460300160f860020a029050610f15565b8160f860020a900460570160f860020a0290505b919050565b6000805b8451811015610f7c578481815181101515610f3557fe5b90602001015160f860020a900460f860020a028484806001019550815181101515610f5c57fe5b906020010190600160f860020a031916908160001a905350600101610f1e565b509093925050505600a165627a7a7230582012a05dcf47d9767e555d376862a30cc09a50db595750e67988d44ad7f02b94460029",
  "source": "/**\n * Copyright (C) 2018  Smartz, LLC\n *\n * Licensed under the Apache License, Version 2.0 (the \"License\").\n * You may not use this file except in compliance with the License.\n *\n * Unless required by applicable law or agreed to in writing, software\n * distributed under the License is distributed on an \"AS IS\" BASIS,\n * WITHOUT WARRANTIES OR CONDITIONS OF ANY KIND (express or implied).\n */\n\npragma solidity ^0.4.24;\n\n/**\n * @title MerkleAirdrop\n * Transfers fixed amount of tokens to anybody, presented merkle proof for merkle root, placed in contract\n *\n * @author Boogerwooger <sergey.prilutskiy@smartz.io>\n */\nimport 'openzeppelin-solidity/contracts/token/ERC20/MintableToken.sol';\n\ncontract MerkleAirdrop {\n\n    address owner;\n    bytes32 public merkleRoot;\n\t// string public ipfsHash;\n\n    // address of contract, having \"transfer\" function\n    // airdrop contract must have ENOUGH TOKENS in its balance to perform transfer\n    MintableToken tokenContract;\n\n    // fix already minted addresses\n    mapping (bytes32 => bool) claimed;\n    event AirdropTransfer(address addr, uint256 num);\n    event EventLog(string func,string message);\n\n    constructor(address _tokenContract) public {\n        owner = msg.sender;\n        tokenContract = MintableToken(_tokenContract);\n    }\n\n\n    function setRoot(bytes32 _merkleRoot) public {\n        require(msg.sender == owner);\n        merkleRoot = _merkleRoot;\n    }\n\n\tfunction contractTokenBalance() public view returns(uint) {\n\t\treturn tokenContract.balanceOf(address(this));\n\t}\n\n    function claim_rest_of_tokens_and_selfdestruct() public returns(bool) {\n        // only owner\n        require(msg.sender == owner);\n        require(tokenContract.balanceOf(address(this)) >= 0);\n        require(tokenContract.transfer(owner, tokenContract.balanceOf(address(this))));\n        selfdestruct(owner);\n        return true;\n    }\n\n    function addressToAsciiString(address x) internal pure returns (string) {\n        bytes memory s = new bytes(40);\n        for (uint i = 0; i < 20; i++) {\n            byte b = byte(uint8(uint(x) / (2**(8*(19 - i)))));\n            byte hi = byte(uint8(b) / 16);\n            byte lo = byte(uint8(b) - 16 * uint8(hi));\n            s[2*i] = char(hi);\n            s[2*i+1] = char(lo);\n        }\n        return string(s);\n    }\n\n    function char(byte b) internal pure returns (byte c) {\n        if (b < 10) return byte(uint8(b) + 0x30);\n        else return byte(uint8(b) + 0x57);\n    }\n\n\n    function uintToStr(uint i) internal pure returns (string){\n        if (i == 0) return \"0\";\n        uint j = i;\n        uint length;\n        while (j != 0){\n            length++;\n            j /= 10;\n        }\n        bytes memory bstr = new bytes(length);\n        uint k = length - 1;\n        while (i != 0){\n            bstr[k--] = byte(48 + i % 10);\n            i /= 10;\n        }\n        return string(bstr);\n    }\n\n    function leaf_from_address_and_num_tokens(address _a, uint256 _n, uint256 nounce) internal pure returns(bytes32 ) {\n        string memory prefix = \"0x\";\n        string memory space = \" \";\n\n        // file with addresses and tokens have this format: \"0x123...DEF 999\", where 999 - num tokens\n        // function simply calculates hash of such a string, given the target adddres and num_tokens\n\n        bytes memory _ba = bytes(prefix);\n        bytes memory _bb = bytes(addressToAsciiString(_a));\n        bytes memory _bc = bytes(space);\n        bytes memory _bd = bytes(uintToStr(_n));\n        bytes memory _be = bytes(space);\n        bytes memory _bf = bytes(uintToStr(nounce));\n\n        //string memory abcde = new string(_ba.length + _bb.length + _bc.length + _bd.length);\n        string memory abcde = new string(_ba.length + _bb.length + _bc.length + _bd.length + _be.length + _bf.length);\n\n\n        bytes memory babcde = bytes(abcde);\n        uint k = 0;\n\n        k = fromStringToBytes(_ba,babcde,k);\n        k = fromStringToBytes(_bb,babcde,k);\n        k = fromStringToBytes(_bc,babcde,k);\n        k = fromStringToBytes(_bd,babcde,k);\n        k = fromStringToBytes(_be,babcde,k);\n        k = fromStringToBytes(_bf,babcde,k);\n        \n        return bytes32(keccak256(abi.encodePacked(abcde)));\n    }\n\n    function fromStringToBytes(bytes memory bytesToPlace, bytes concatBytes, uint k) pure internal returns (uint){\n        for (uint i = 0; i < bytesToPlace.length; i++) concatBytes[k++] = bytesToPlace[i];\n        return k;\n    }\n\n\n    function getClaimKey(address _who, uint256 _nounce) internal pure returns (bytes32) {\n        return keccak256(abi.encodePacked(_who, _nounce));\n    }\n\n\n\n    function getTokensByMerkleProof(bytes32[] _proof, address _who, uint256 _amount, uint256 _nounce) public returns(bool) {\n        bytes32 claimKey = getClaimKey(_who,_nounce);\n        if(claimed[claimKey] == true){\n            emit EventLog('Key Claimed Address:',addressToAsciiString(_who));\n            emit EventLog('Key Claimed Nounce:',uintToStr(_nounce));\n        }\n        require(claimed[claimKey] == false);\n        require(_amount > 0);\n        // require(msg.sender = _who); // makes not possible to mint tokens for somebody, uncomment for more strict version\n\n        if (!checkProof(_proof, leaf_from_address_and_num_tokens(_who, _amount, _nounce))) {\n             emit EventLog('Proof Not Valid:',uintToStr(_nounce));\n            return false;\n        }\n\n        claimed[claimKey] = true;\n        if (tokenContract.mint(_who, _amount) == true) {\n            emit AirdropTransfer(_who, _amount);\n            return true;\n        }\n\t\t// throw if transfer fails, no need to spend gaz\n        require(false);\n    }\n\n    function checkProof(bytes32[] proof, bytes32 hash) view public returns (bool) {\n        bytes32 el;\n        bytes32 h = hash;\n\n        for (uint i = 0; i <= proof.length - 1; i += 1) {\n            el = proof[i];\n\n            if (h < el) {\n                h = keccak256(abi.encodePacked(h, el));\n            } else {\n                h = keccak256(abi.encodePacked(el, h));\n            }\n        }\n\n        return h == merkleRoot;\n    }\n}\n\n\n\n/*\n\nabiDecoder = require('abi-decoder');\nabiDecoder.addABI(MerkleAirdrop.abi);\neth = web3.eth;\n\naccs = web3.eth.accounts;\n\nleafsArray = [];\nleafsArray.push(accs[0] + ' 100');\nleafsArray.push(accs[1] + ' 88');\nleafsArray.push(accs[2] + ' 99');\nleafsArray.push(accs[3]+ ' 66');\n\nMerkleTree = require('./test/helpers/merkleTree.js')\nmerkleTree = new MerkleTree(leafsArray);\nmerkleProof = merkleTree.getHexProof(leafsArray[0]);\n\nmerkleDrop = MerkleAirdrop.at(MerkleAirdrop.address);\nmerkleDrop.setRoot(merkleTree.getHexRoot());\n\nmintToken = MintableToken.at(MintableToken.address);\nmintToken.balanceOf(accs[0])\n\ntxHash = merkleDrop.getTokensByMerkleProof(merkleProof, accs[0], 100,1);\ntxHash.then((x)=>{txHash=x.tx});\ntxHashR = eth.getTransactionReceipt(txHash);\n\nder = abiDecoder.decodeLogs(txHashR.logs)\nder[0].events\n\n------------------\n\nleafsArray.push(accs[4]+ ' 100');\nmerkleTree = new MerkleTree(leafsArray);\nmerkleProof = merkleTree.getHexProof(leafsArray[4]);\nmerkleDrop.setRoot(merkleTree.getHexRoot());\ntxHash = merkleDrop.getTokensByMerkleProof(merkleProof, accs[4], 100);\ntxHash.then((x)=>{txHash=x.tx});\ntxHashR = eth.getTransactionReceipt(txHash);\n\nder = abiDecoder.decodeLogs(txHashR.logs)\nder[0].events\n\n\n\n*/",
  "sourcePath": "/Users/shivamsinha/Desktop/Programming/workspace/ethereum/truffleProjects/constructor-eth-merkle-airdrop/contracts/MerkleAirdrop.sol",
  "compiler": {
    "name": "solc",
    "version": "0.4.24+commit.e67f0147.Emscripten.clang"
  },
  "schemaVersion": "2.0.1",
  "updatedAt": "2018-10-08T15:26:41.249Z"
}