{
  "contractName": "TestDrop",
  "abi": [
    {
      "constant": true,
      "inputs": [],
      "name": "getMemoryBytes",
      "outputs": [
        {
          "name": "",
          "type": "bytes"
        }
      ],
      "payable": false,
      "stateMutability": "view",
      "type": "function"
    },
    {
      "constant": true,
      "inputs": [],
      "name": "getBytes",
      "outputs": [
        {
          "name": "",
          "type": "bytes"
        }
      ],
      "payable": false,
      "stateMutability": "pure",
      "type": "function"
    }
  ],
  "bytecode": "0x608060405234801561001057600080fd5b50610338806100206000396000f30060806040526004361061004b5763ffffffff7c01000000000000000000000000000000000000000000000000000000006000350416630bcd3b3381146100505780636dda11c4146100da575b600080fd5b34801561005c57600080fd5b506100656100ef565b6040805160208082528351818301528351919283929083019185019080838360005b8381101561009f578181015183820152602001610087565b50505050905090810190601f1680156100cc5780820380516001836020036101000a031916815260200191505b509250505060405180910390f35b3480156100e657600080fd5b50610065610126565b60408051808201909152600281527f3078000000000000000000000000000000000000000000000000000000000000602082015290565b606061013130610136565b905090565b6040805160288082526060808301909352829160009182918291829186916020820161050080388339019050509550600094505b6014851015610283578460130360080260020a8873ffffffffffffffffffffffffffffffffffffffff1681151561019d57fe5b0460f860020a02935060108460f860020a900460ff168115156101bc57fe5b0460f860020a0292508260f860020a90046010028460f860020a90040360f860020a0291506101ea8361028f565b86866002028151811015156101fb57fe5b9060200101907effffffffffffffffffffffffffffffffffffffffffffffffffffffffffffff1916908160001a9053506102348261028f565b868660020260010181518110151561024857fe5b9060200101907effffffffffffffffffffffffffffffffffffffffffffffffffffffffffffff1916908160001a90535060019094019361016a565b50939695505050505050565b60007f0a000000000000000000000000000000000000000000000000000000000000007fff00000000000000000000000000000000000000000000000000000000000000831610156102f3578160f860020a900460300160f860020a029050610307565b8160f860020a900460570160f860020a0290505b9190505600a165627a7a7230582060ef8bfddf8f4c7dbb696ba156c275817711140e25aaad6d3eaf76dfe49efa600029",
  "source": "pragma solidity ^0.4.22;\n\n\ncontract TestDrop {\n\n\n    function getMemoryBytes() view external returns(bytes){\n      return addressToAsciiString(this);\n    }\n\n\n    function getBytes() pure external returns(bytes) {\n      string memory prefix = \"0x\";\n      bytes memory test = bytes(prefix);\n      return test;\n   }\n\n       function addressToAsciiString(address x) internal pure returns (bytes) {\n        bytes memory s = new bytes(40);\n        for (uint i = 0; i < 20; i++) {\n            byte b = byte(uint8(uint(x) / (2**(8*(19 - i)))));\n            byte hi = byte(uint8(b) / 16);\n            byte lo = byte(uint8(b) - 16 * uint8(hi));\n            s[2*i] = char(hi);\n            s[2*i+1] = char(lo);\n        }\n\n        bytes memory testBytes = bytes(string(s));\n        return testBytes;\n    }\n\n        function char(byte b) internal pure returns (byte c) {\n        if (b < 10) return byte(uint8(b) + 0x30);\n        else return byte(uint8(b) + 0x57);\n    }\n\n}\n",
  "sourcePath": "/Users/shivamsinha/Desktop/Programming/workspace/ethereum/truffleProjects/constructor-eth-merkle-airdrop/contracts/TestDrop.sol",
  "compiler": {
    "name": "solc",
    "version": "0.4.24+commit.e67f0147.Emscripten.clang"
  },
  "schemaVersion": "2.0.1",
  "updatedAt": "2018-10-08T17:58:01.266Z"
}